:040000008031112812
:10000800803120007F08F9008B1A0B1D0D288131E3
:100018005B2179082000FF00090080311328213076
:10002800840023308500CF30FE000030FF0081318E
:10003800F921F001F101F201F301F401F501F601F2
:10004800F701A001200081319D29003020000E1AFF
:100058000130F00021308600233087004231013022
:10006800810741310318810A213086002330870037
:10007800413165300102031C4529213086002330B7
:1000880087000630C03F4529F008031D08002130CD
:100098008600233087004231403FFA00413FFB0091
:1000A80000307B02643003197A0203186428213077
:1000B80086002330870042310030C03FC13F08002E
:1000C800EF308600233087008101213086002330FD
:1000D8008700413181012130860023308700423179
:1000E800213084002330850001310008FA00FB012B
:1000F800FA35FB0D2530FC002330FD007A087C071B
:1001080084007B087D3D8500403F803F413F813F23
:100118000130FA00213086002330870041317A0807
:100128008107213086002330870042310030C03FEC
:10013800C13F21308600233087000330C03F0800CC
:100148007008013A031D080021308600233087001B
:100158004231213084002330850001310008FA0043
:10016800FB01FA35FB0D2530FC002330FD007A0831
:100178007C0784007B087D3D8500403F803F413FF0
:10018800813F0130FA002130860023308700413159
:100198007A088107213086002330870042310030F9
:1001A800C03FC13F21308600233087000430C03F64
:1001B8000800F008031D1529213086002330870028
:1001C8004231213084002330850001310008FA00D3
:1001D800FB01FA35FB0D2530FC002330FD007A08C1
:1001E8007C0784007B087D3D8500403F803F413F80
:1001F800813F0130FA0021308600233087004131E9
:100208007A08810721308600233087004231003088
:10021800C03FC13F21308600233087000330C03FF4
:10022800080021308600233087004231403FFA0021
:10023800413FFB0000307B02653003197A02031C42
:10024800080021308600233087000530C03F0800B1
:10025800F008031D08002130860023308700423152
:100268000030C03FC13F0800EF30860023308700D0
:100278000130810021308600233087000530C03FDF
:10028800080021308600233087000108023A03194C
:100298004828013A0319A428073A0319DD28013A26
:1002A80003192C29033A031938295A2908000B1174
:1002B800760820009500F7170130F8007808F20753
:1002C80022008E1620000E1A7429031022000C1D1D
:1002D8000314031C722922000C15742922000C1126
:1002E8007208053A031D9A29F20177140130F800C3
:1002F8007808F107711D9A29FB30F8007808F10594
:10030800F7140130F8007808F307731D9A29FB30B9
:10031800F8007808F30577150130F8007808F40735
:10032800FA307402031C9A29F401F71522008E1280
:1003380008008231052281318B170B1722000E111C
:100348000C118E110E150C158E1507308131DD211B
:100358008131003A0319A92907308131EB21813114
:10036800803129208131A92922008C018E012B306E
:1003780021008C0013308E000F3023008E001730C0
:100388008C0024008C018E012100951722009D010C
:100398009E01080021001508C039113895009C30CD
:1003A800200095009C30FA007A08F6000B118B1695
:1003B8000800FB000130FA007B0AE329FA35890BB3
:1003C800E2297A0877050030031D01300800FC0097
:1003D8000130FA007C0AF129FA35890BF0297A08EC
:1003E800FF3AFB007B08F705080064008001013133
:1003F8000130FE020030FF3B7F087E040319003401
:10040800FA298131B8218231823111228231823137
:100418001B2282318131CE210800703021009900E1
:1004280098012200960121001A1B0800172A16308D
:06043800210097000800FE
:020000040001F9
:04000E00E4FFFFDF2D
:00000001FF
